{
  "contractName": "DocumentRegistry",
  "abi": [
    {
      "anonymous": false,
      "inputs": [
        {
          "indexed": false,
          "internalType": "bytes32",
          "name": "docHash",
          "type": "bytes32"
        },
        {
          "indexed": true,
          "internalType": "address",
          "name": "by",
          "type": "address"
        }
      ],
      "name": "DocumentAdded",
      "type": "event"
    },
    {
      "constant": true,
      "inputs": [
        {
          "internalType": "bytes32",
          "name": "",
          "type": "bytes32"
        }
      ],
      "name": "documents",
      "outputs": [
        {
          "internalType": "bool",
          "name": "",
          "type": "bool"
        }
      ],
      "payable": false,
      "stateMutability": "view",
      "type": "function"
    },
    {
      "constant": false,
      "inputs": [
        {
          "internalType": "bytes32",
          "name": "docHash",
          "type": "bytes32"
        }
      ],
      "name": "addDocument",
      "outputs": [],
      "payable": false,
      "stateMutability": "nonpayable",
      "type": "function"
    },
    {
      "constant": true,
      "inputs": [
        {
          "internalType": "bytes32",
          "name": "docHash",
          "type": "bytes32"
        }
      ],
      "name": "isDocumentRegistered",
      "outputs": [
        {
          "internalType": "bool",
          "name": "",
          "type": "bool"
        }
      ],
      "payable": false,
      "stateMutability": "view",
      "type": "function"
    }
  ],
  "bytecode": "0x608060405234801561001057600080fd5b506101c6806100206000396000f3fe608060405234801561001057600080fd5b50600436106100415760003560e01c80632b2805db14610046578063582a286314610077578063618e6ce614610096575b600080fd5b6100636004803603602081101561005c57600080fd5b50356100b3565b604080519115158252519081900360200190f35b6100946004803603602081101561008d57600080fd5b50356100c8565b005b610063600480360360208110156100ac57600080fd5b503561017c565b60006020819052908152604090205460ff1681565b60008181526020819052604090205460ff161561012c576040805162461bcd60e51b815260206004820152601760248201527f446f63756d656e7420616c726561647920657869737473000000000000000000604482015290519081900360640190fd5b60008181526020818152604091829020805460ff191660011790558151838152915133927fdbfa39e1690eb55308046a0453096b664b994ffbbd01e9a81be622d3ce8d816692908290030190a250565b60009081526020819052604090205460ff169056fea265627a7a723158201062576fbb48fa1ea281b4926c12dcdde2ab796c4ce4e2e6021c8ce124fd1dc264736f6c63430005100032",
  "source": "// SPDX-License-Identifier: MIT\r\npragma solidity ^0.5.16;\r\n\r\ncontract DocumentRegistry {\r\n    mapping(bytes32 => bool) public documents;\r\n    \r\n    event DocumentAdded(bytes32 docHash, address indexed by);\r\n    \r\n    function addDocument(bytes32 docHash) public {\r\n        require(!documents[docHash], \"Document already exists\");\r\n        \r\n        documents[docHash] = true;\r\n        emit DocumentAdded(docHash, msg.sender);\r\n    }\r\n    \r\n    function isDocumentRegistered(bytes32 docHash) public view returns (bool) {\r\n        return documents[docHash];\r\n    }\r\n}\r\n",
  "sourcePath": "C:\\Users\\aashi\\OneDrive\\Desktop\\docVault\\contracts\\DocumentVerification.sol",
  "compiler": {
    "name": "solc",
    "version": "0.5.16+commit.9c3226ce.Emscripten.clang"
  },
  "schemaVersion": "3.4.16",
  "updatedAt": "2024-05-18T11:24:52.318Z",
  "devdoc": {
    "methods": {}
  },
  "userdoc": {
    "methods": {}
  }
}